:020000040000FA
:100000000A128A110E280134FE00030EF4000408BF
:10001000F5000A08F6000A128A1146280A128A1107
:1000200011280A128A1103200A128A11D0000A121A
:100030008A1538270A128A11F8000A128A153927F8
:100040000A128A11F9000A128A153A270A128A112D
:10005000FA000A128A153B270A128A11FB00831341
:10006000A0308400D2300A128A1542270A128A115F
:100070003C3084004E300A128A1542270A128A1137
:10008000FC01FD0183010A128A11692B0B1D49280D
:100090004A28B9289B288312031307147D08783E49
:1000A000840000080A128A1534270A128A11003CBB
:1000B000831203138100B4288312031307108715DA
:1000C0007D08783E840000080A128A1534270A1237
:1000D0008A11003C831203138100B4288312031396
:1000E000871108147D08783E840000080A128A15DA
:1000F00034270A128A11003C831203138100B428AA
:1001000083120313081088147D08783E84000008C9
:100110000A128A1534270A128A11003C831203132B
:100120008100B4288312031388108101FF30F1008D
:100130007108FD00B4287D08F100F2017208003A50
:100140000319A328B4287108003A03194B28013A6F
:1001500003195C28033A03196E28013A0319802811
:10016000073A03199228B4280130F1007108FD07FD
:100170000B11831203138C1EBE28BF2817291A08DF
:10018000F1007108F7003E08031DC728C828172989
:10019000FB287708F1007108C0000130F1007108F8
:1001A000BF0017293F080319D628D72817293B3045
:1001B00077060319DC28DD28F02803307C020318B9
:1001C000E228E328F0287708F1007C084A3E840002
:1001D0007108831380000130F1007108FC071729B2
:1001E0007C084A3E8400831380010130F1007108CD
:1001F000BE00FC0117297708F100F2017208003AED
:1002000003190329D2287108413A0319C928033A6E
:100210000319C928013A0319C928073A0319C9283B
:10022000013A0319C928033A0319C928D2280C1F17
:100230001A291B2942292E291E08F1007108C20023
:100240001F08C33904389F009F1441291E08F1007C
:100250007108C100C3309F059F1441291F0CF10094
:10026000710C0F39F200F3017308003A03193929B0
:1002700041297208003A03191C29013A0319262959
:1002800041290C138B1C4529462951290F08BD0013
:100290000E08BC008E018F018B100130F100710837
:1002A000D00076088A0075088400740E8300FE0E64
:1002B0007E0E0900183083120313A1008030A200C3
:1002C0004B30B8003808A3000A128A11C0260A125F
:1002D0008A1183120313BA013A08B8003808A00043
:1002E0003A08783E840000080A128A11DF270A12B1
:1002F0008A11831203133A08013EB100003003183B
:100300000130B2000A30B3000030B40044300A12A9
:100310008A15B3270A128A11443083120313A100ED
:100320000030A2000630B8003808A3000A128A1173
:10033000C0260A128A11303083120313A1008030C4
:10034000A2000530B8003808A3000A128A11C0269E
:100350000A128A11831203133A08783E84000008B7
:10036000B800B9013808B1003908B2000A30B3004A
:100370000030B40044300A128A15B3270A128A11D9
:10038000443083120313A1000030A2000630B800ED
:100390003808A3000A128A11C0260A128A110A30EC
:1003A0000A128A154A270A128A110130831203138E
:1003B000B8003808BA0704303A02031CE029E129E2
:1003C0006C290430B8003808A00015080A128A11F8
:1003D000DF270A128A112F3083120313A100803005
:1003E000A2000430B8003808A3000A128A11C026FF
:1003F0000A128A11831203131508B800B9013808CC
:10040000B1003908B2000A30B3000030B400443003
:100410000A128A15B3270A128A1144308312031371
:10042000A1000030A2000630B8003808A3000A126C
:100430008A11C0260A128A110A300A128A154A271E
:100440000A128A11053083120313B8003808A0007D
:100450001B080A128A11DF270A128A11333083120D
:100460000313A1008030A2000430B8003808A300B4
:100470000A128A11C0260A128A11831203131B085A
:10048000B800B9013808B1003908B2000A30B30029
:100490000030B40044300A128A15B3270A128A11B8
:1004A000443083120313A1000030A2000630B800CC
:1004B0003808A3000A128A11C0260A128A110A30CB
:1004C0000A128A154A270A128A110800013083127B
:1004D0000313A1008030A2004B30B8003808A300FD
:1004E0000A128A11C0260A128A1183120313BA0152
:1004F0003A080A128A1558270A128A11831203131E
:10050000B8003A08783E8400380880003A08013E76
:10051000B100003003180130B2000A30B3000030DF
:10052000B40044300A128A15B3270A128A114430E3
:1005300083120313A1000030A2000630B80038086F
:10054000A3000A128A11C0260A128A1130308312BF
:100550000313A1008030A2000530B8003808A300C2
:100560000A128A11C0260A128A11831203133A084A
:10057000783E84000008B800B9013808B100390895
:10058000B2000A30B3000030B40044300A128A15B9
:10059000B3270A128A11443083120313A1000030DA
:1005A000A2000630B8003808A3000A128A11C0263B
:1005B0000A128A110A300A128A154A270A128A1167
:1005C000013083120313B8003808BA0704303A0226
:1005D000031CEB2AEC2A782A04300A128A155827C1
:1005E0000A128A118312031395002F30A100803064
:1005F000A2000430B8003808A3000A128A11C026ED
:100600000A128A11831203131508B800B9013808B9
:10061000B1003908B2000A30B3000030B4004430F1
:100620000A128A15B3270A128A114430831203135F
:10063000A1000030A2000630B8003808A3000A125A
:100640008A11C0260A128A110A300A128A154A270C
:100650000A128A1105300A128A1558270A128A11BD
:10066000831203139B003330A1008030A2000430BA
:10067000B8003808A3000A128A11C0260A128A118B
:10068000831203131B08B800B9013808B1003908F8
:10069000B2000A30B3000030B40044300A128A15A8
:1006A000B3270A128A11443083120313A1000030C9
:1006B000A2000630B8003808A3000A128A11C0262A
:1006C0000A128A110A300A128A154A270A128A1156
:1006D00008008316031788018901FF30831603136E
:1006E0008500851187018801FF3086008613061377
:1006F0008312031306178617873092051208FC39F8
:10070000023892001D08F0390C389D001D129D1210
:100710001708F0390C3897003F309705CF30970510
:10072000033092041215F9308316031392008112DC
:1007300081110108F839033881008B170B178B16CC
:100740008312031381010A128A1567270A128A117C
:10075000831603178C1303308800831203131F08BA
:100760003F3940389F00C3309F05831603139F0114
:10077000831203131F149F1490171017CF30900586
:10078000901010148E018F018316031301130B16A2
:10079000203083120313BB003B08CA002030BB008B
:1007A0003B08CB002030BB003B08CC00CD018501CD
:1007B000831203134F08BB003B08CE000508BB00A3
:1007C0003B08CF004E1DE52BE62BEF2B4F19E92BF5
:1007D000EA2BEF2B0A128A115A210A128A1183126C
:1007E00003134E1EF42BF52BFE2B4F1AF82BF92B6F
:1007F000FE2B0A128A1166220A128A11831203132F
:1008000041084202031C052C062C0B2C0A128A11EB
:100810004E260A128A118312031350080319112C51
:10082000122C1E2C8515023083120313BB00BB0B48
:10083000172C0000831203138511D0013D08803A64
:10084000FF0080307F02031D272CFB303C02031881
:100850002A2C2B2C302C0A128A1142240A128A11BB
:10086000831203133E080319362C372CD82BBE01F4
:10087000BF010A128A115B250A128A11D82B0A12AB
:100880008A110E28831203130617A101A10A46300C
:100890000A128A158D270A128A1102308312031355
:1008A000A6002608A10046300A128A158D270A12D2
:1008B0008A11403083120313A6002608FB00403043
:1008C000A6002608FA004030A6002608A80028083E
:1008D000A6002608F8000D3083120313A700FB3092
:1008E000A600A60B712CA70B712C013083120313E9
:1008F000A8022030280203187E2C7F2C672C403061
:10090000A6002608A9002908A6002608F9000D302F
:1009100083120313A700FB30A600A60B8D2CA70B98
:100920008D2C013083120313A6002608A9075F301F
:100930002902031C9C2C9D2C832C1F30A60026080A
:10094000AA002A08A6002608F8000D308312031317
:10095000A700FB30A600A60BAB2CA70BAB2C0130DD
:1009600083120313A6002608AA0740302A02031C9C
:10097000BA2CBB2CA12C5F30A6002608AB002B089C
:10098000A6002608F9000D3083120313A700FB30E0
:10099000A600A60BC92CA70BC92C01308312031388
:1009A000AB0241302B020318D62CD72CBF2C0800E9
:1009B00083120313AD00E02C0130A8002808AD0716
:1009C0002D0884002030831300060319E82CE92C3D
:1009D000DC2C2D088400093000060319F02CF12CC2
:1009E000DC2CAB01AC01AA012D0884002D300006DF
:1009F000031DFB2CFC2C052D0130A8002808AA079C
:100A00000130A8002808AD07372D2D0884002B30B1
:100A10000006031D0C2D0D2D372D0130A8002808D0
:100A2000AD07372D831203132D0884002C08A10075
:100A30002B08A0000A30A2000030A3000A128A1579
:100A4000D9270A128A11831300088312031320077F
:100A5000A8000030031801302107A9002808D03E63
:100A6000AB0029080318013EFF3EAC000D2D2D08F8
:100A7000840000080A128A1579270A128A110318BD
:100A8000422D432D122D831203132A080319492DD9
:100A90004A2D562D2B09A8002C09A900A80A0319D4
:100AA000A90A2808A6002908A7005A2D2C08A70083
:100AB0002B08A60008004A300A128A11D8240A120C
:100AC0008A11831203132708B1002608B00003100F
:100AD000861F031403186D2D712D831203138617BF
:100AE000742D8312031386134A30A1000030A20034
:100AF0000430AE002E08A3000A128A11C0260A1282
:100B00008A110A300A128A154A270A128A112030DD
:100B100083120313AE002E08CA002030AE002E0848
:100B2000CB002030AE002E08CC00CD01BF2D300808
:100B3000AE002E08F800DB2D3008AE002E08F900BC
:100B4000DB2DA101A10A30080A128A158D270A128D
:100B50008A11DB2D0230AE002E08A10030080A12E7
:100B60008A158D270A128A11DB2D3008AE002E0857
:100B7000FA00DB2D3008AE002E08FB00DB2D40080C
:100B8000AE00AF012F08003A0319C72DDB2D2E0848
:100B9000413A0319972D033A03199C2D013A031981
:100BA000A12D073A0319AA2D013A0319B52D033ACD
:100BB0000319BA2DDB2D080083120313B000290896
:100BC000AE002808AD002B08A1002A08A0002E08BE
:100BD000A3002D08A2000A128A115D270A128A11A9
:100BE000831203132108AE002008AD000130AC00D1
:100BF0002C08B0072D082E04031DFF2D002EE32D19
:100C000030088400831380010130B0022B08A1005A
:100C10002A08A0002908A3002808A2000A128A11A5
:100C2000A3270A128A11831203132008AC002C0890
:100C3000AF002B08A1002A08A0002908A30028085B
:100C4000A2000A128A115D270A128A118312031365
:100C50002108A9002008A8000A302F02031C312E09
:100C6000322E362E0730AC002C08AF073030AC00E7
:100C70002C08AF072F08AC00300884002C08831321
:100C800080000130B00228082904031D482E492E97
:100C9000062E0130AC002C08B007080083120313A5
:100CA0000613A8014030A6002808783E84002608D4
:100CB00080000130A6002608A80706302802031C81
:100CC000622E632E522E0A30A6002608A900A1012A
:100CD000A10A29080A128A158D270A128A110230E0
:100CE00083120313A6002608A10029080A128A15F8
:100CF0008D270A128A111A3083120313A700F730C6
:100D0000A600A60B812EA70B812E862E0130831202
:100D10000313A6002608A90746302902031C912EBA
:100D2000922E672E4630A6002608AA00A101A10A2D
:100D30002A080A128A158D270A128A110230831294
:100D40000313A6002608A1002A080A128A158D2777
:100D50000A128A111A3083120313A700F730A60073
:100D6000A60BB02EA70BB02EB52E013083120313A5
:100D7000AA020B302A020318BE2EBF2E962E0800A0
:100D800083120313A701A801A701A801EB2E2708CE
:100D90002107A5002208A4000318A40AA71FD12E2A
:100DA000A403831203132408A6002608FF002508C5
:100DB00084000A128A1117270A128A110A128A1548
:100DC0004A270A128A11013083120313A707031856
:100DD000A80A0030A8072808803AA400803024021E
:100DE000031DF42E230827020318F72EF82E162FC2
:100DF0008312031327082107A5002208A400031863
:100E0000A40AA71F042FA403831203132408A60017
:100E10002608FF00250884000A128A1117270A12E3
:100E20008A11003A031D152F162FC72E0800FF1B2D
:100E3000212F83137F1883170008840A0319FF0AE0
:100E4000080007308A000408840A8207003443340B
:100E50006F346C346F34633461346E3464346F34A3
:100E6000203450346F3473346934633469346F34EC
:100E70006E34653473343A340A340034473475348C
:100E800061347234643461346E3464346F342034C9
:100E900050346F3473346934633469346F346E346E
:100EA000653473343A340A34003435342934203408
:100EB0000034363429342034003483120313A5015E
:100EC000A601200821040319662F672F9E2FA70172
:100ED000A70A752F01300310A00DA10DFF3E031DC1
:100EE0006B2F0130A4002408A707A11F782F792FAA
:100EF0006A2F01300310A50DA60DFF3E031D7A2FAA
:100F000021082302031D862F20082202031C892F9B
:100F10008A2F912F2008A2022108031CA303A302F9
:100F2000251401300310A10CA00CFF3E031D922FCD
:100F30000130A702031D9D2F9E2F792F2608A100A7
:100F40002508A000080083120313200821040319B8
:100F5000AA2FAB2FDA2FA501A50AB92F0130031054
:100F6000A00DA10DFF3E031DAF2F0130A4002408EA
:100F7000A507A11FBC2FBD2FAE2F21082302031DE3
:100F8000C32F20082202031CC62FC72FCD2F2008F5
:100F9000A2022108031CA303A30201300310A10C29
:100FA000A00CFF3E031DCE2F0130A502031DD92F3B
:100FB000DA2FBD2F2308A1002208A0000800831209
:100FC0000313A1002008831203178D008F018312E1
:100FD00003132108831203178C00831603178C1345
:100FE0000C158B138B1BF52FF62FF22F5530831614
:100FF00003178D00AA308D008C148B170C1108007C
:101E6800F00070081F3E08004034403440344034CD
:101E780083120313A00020081F3E0800640080019D
:101E8800840A0406031900340406432F831203133B
:101E9800A00083160313981C522F532F4D2F831223
:101EA800031320089900080083120313A0002008D8
:101EB800831203178D00831603178C130C148312D7
:101EC80003170C0808008316031318139816181222
:101ED8001815831203139817181318160C30831645
:101EE800031399008C160B17080083120313A10023
:101EF800A0013A3021020318822F832F8B2F303014
:101F08002102031C882F892F8B2FA001A00A200CE7
:101F1800080083120313A40024080A128A153C2718
:101F28000A128A1583120313A2002208A500A22F01
:101F380025089500B22F25089B00B22F2108A20082
:101F4800A3012308003A0319AA2FB22F2208013A45
:101F580003199C2F033A03199F2FB22F08008312ED
:101F68000313B700B21FB92FBA2FCA2F2D30B500EF
:101F7800370884003508831380000130B500350820
:101F8800B707B109B209B10A0319B20A3208A900A0
:101F98003108A8003408AB003308AA0037080A1231
:101FA8008A11DC250A128A15080083120313A4017A
:101FB800A501201CE02FE12FE72F2208A407031812
:101FC800A50A2308A50701300310A20DA30DFF3EA3
:101FD800031DE82F01300310A10CA00CFF3E031DC8
:101FE800EF2F20082104031DFA2FFB2FDD2F2508D2
:081FF800A1002408A00008006C
:04400E00D420FF3F7C
:00000001FF
